:100000006F00700E00000000DA010000DE01000049
:1000100000000000000000000000000000000000E0
:1000200000000000000000000000000000000000D0
:100030003A07000000000000B608000000000000C1
:10004000B8080000BA080000BC080000BE080000A4
:10005000C0080000C2080000C4080000C608000074
:10006000C8080000CA080000CC080000CE08000044
:10007000D0080000D2080000D4080000D608000014
:10008000D8080000DA080000DC080000DE080000E4
:10009000E0080000E2080000E408000000000000A2
:1000A000511126C022C206C4828282441244A24058
:1000B00031018280634E050263C305042E86AA8542
:1000C0007D5515C285466378B6006356C0000606A6
:1000D0008606E36CB6FE014563E4C500918D558D3F
:1000E00085820582F5FA82808682C93F2E858282CA
:1000F0003305A04063D70500B305B040C1B7B305D1
:10010000B0408682653F3305A0408282868263C705
:100110000500634905005D372E858282B305B04036
:10012000E35B05FE3305A040513F3305B0408282BA
:1001300000003D432A876373C3029377F700BDEF46
:10014000ADE5937606FF3D8ABA960CC34CC30CC747
:100150004CC74107E36BD7FE11E28280B306C34070
:100160008A069702000096966780A6002307B700CC
:10017000A306B7002306B700A305B7002305B70001
:10018000A304B7002304B700A303B7002303B700F9
:10019000A302B7002302B700A301B7002301B700F1
:1001A000A300B7002300B700828093F5F50F939664
:1001B0008500D58D93960501D58D61B7939627005F
:1001C0009702000096968682E78086FA9680C1178D
:1001D0001D8F3E96E374C3F8A5B77300203001A0CD
:1001E000EFF21FEC3705024013058505EF00D0053F
:1001F000370400203705024013058505EF00D004C1
:10020000930504009C41E387A7FE03C6019E138764
:10021000018E32970823FD179386019E1375F50F03
:1002200089C705069CC190A249B593070010D5BFA8
:10023000EFF21FE701113734014068846C82130527
:1002400004C04C0032C002C802CA02CC02CE231342
:1002500001002315010023160100EF00B01A024629
:10026000C167938707060C08130504C03EC8F083D6
:10027000231C0100EF00F01D130504C08545EF00AD
:10028000B025130504C08145EF001028130504C0F4
:100290008545EF00D0258545130504C0EF005022A9
:1002A000056121B5EFF2DFDF0565511185451305C5
:1002B000058102C002C202C4EF00F012C1477C8077
:1002C000E1473EC48A858D47371501403EC2EF00A5
:1002D00020783101D9BB9386818C1387418D81476A
:1002E00013858189FD53938581831386818613034A
:1002F0000003B302F50023A07200B382F50023A02F
:100300000200B302F600238006002300070023A0AA
:100310000200910785060507E39D67FC8280EFF2E6
:100320003FD82A8411651111854513050502EF0098
:10033000900B930700047C80371501408D473EC227
:100340008A859147130505403EC4EF00607022C6C0
:1003500037440140B7070C006C00130504803ECA07
:1003600002C8231C0100EF00901B05461305048002
:1003700093050004EF00D028854513050480EF00A5
:10038000D02671011DB3EFF2BFD11301C1FC2A8445
:100390002EC2B28481451306C002280036C0513BEC
:1003A00085450545EF0050022285C12392478246CC
:1003B0002C003EC4930700083ECE930700023ED4B3
:1003C00022858D6736CA3ED626C602C802CC02D028
:1003D00002D202D8252585452285A92D1301410386
:1003E000E9B1EFF2FFCB21110945EF00C0730567BA
:1003F000B7E700E037F400E023A0E7105C40A16518
:10040000938505D0F99B5CC0B707002003A5470082
:1004100075317D1508C823240400BD471CC08147E1
:100420009385018E7D5613070010B386F50090A2C8
:100430008507E39CE7FE2165130525A1CD35B7456A
:10044000014037050240930600101386018E938504
:10045000458013058505053FB1351306F00F81452D
:1004600013050010F133853DA53B1374F500930788
:1004700000091375050F6301F50E63ECA7069307DA
:100480000008E313F5FEA93B2AC0993B02438147CC
:1004900093824181938601821386C18293858189EB
:1004A0003385F200834305000547639FE3023387EA
:1004B000F6001823631A87023307F6001823631522
:1004C00067029393270033877500FD5023201700A0
:1004D000138781861E97232007001387818C3E9700
:1004E000230007002300050085073147E39AE7FA58
:1004F000A5BF9307000B6305F51A9307000CE315DE
:10050000F5F68147138341819386018213868189A1
:10051000938581863305F300834205000547639880
:10052000E2023387F600182363138702139727002C
:10053000B302E6002E97232007001387818CFD531A
:100540003E9723A0720023000700230005008507C3
:100550003147E391E7FC09BF61312AC05131A5471A
:10056000E304F4F093864181814769C901458542DE
:10057000138601829385C1823143B383F60083C31E
:10058000030063905302B303F60083C30300639A2E
:100590008300B383F50083C3030002476393E30042
:1005A00005458507E39B67FCE31005EC8147B145F2
:1005B0003386F60008223DED939227003EC682471F
:1005C000B70600208565139517009386060393856B
:1005D00045E1A296AA9503C306008E2193868189E0
:1005E00037E5F50596961305051032CA1AC816C4E4
:1005F00036C2E9349246A242B24788C293868183CA
:10060000969623A0060042439386418DBE96238092
:1006100066009386818CBE9685458CA29386018266
:10062000BE96524680A202479386C182B6970CA21C
:1006300098A31DBD8507E39DB7F63DB513870182DD
:100640001386C182938581893385F6008343050033
:100650000543639263043303F70003430300631C01
:1006600083023303F60003430300824363157302DE
:1006700013932700B3836500FD5023A013009383D9
:1006800081861E93232003001383818C3E932300D5
:1006900003002300050085073145E397A7FAE9B376
:1006A00081369307900763E9A70693078007637A6B
:1006B000F5009D47630AF506AD476307F506E315A8
:1006C00005DA8147138341819386018213868189EC
:1006D000938581863305F3008342050005476398BF
:1006E000E2023387F600182363138702139727006B
:1006F000B302E6002E97232007001387818CFD5359
:100700003E9723A072002300070023000500850701
:100710003147E391E7FC89BB130555F81375F50FD5
:100720009147E3E3A7D471BF653CB70700209387E7
:1007300007033E940D8108A005BB411122C603D7D3
:100740000181B7370140056523A0E7C49386818303
:1007500013868189814713840181130555C39385CD
:10076000818CB1429842032306002A9798C2935382
:100770001300637877083383F500034303003307DE
:10078000F10023006700850791061106E39C57FCE2
:100790000566B7050020814701459386818C1306C5
:1007A00046F193850503138301823387F600834264
:1007B000070005476391E2023307F100182301CFD8
:1007C0003307F30018232E9718230A0732973A238A
:1007D0003A954205418185073147E398E7FC8567F3
:1007E0009387F78F63EAA702A545EFF03F8D0AA034
:1007F0003244B7F700E0D84323A207004101730059
:1008000020306376E3003307674098C2ADB7330703
:10081000F1002300070085BF9307F00F1EA0C9BF9A
:10082000B71702409843B706FFFC1367170098C339
:10083000D843758FD8C39843B706F7FEFD16758F5A
:1008400098C39843B706FCFFFD16758F98C3D44331
:1008500041777D17F98ED4C3B7069F0094C7B7269A
:1008600002409042719A90C290421366160090C264
:10087000D443D4C3D443758FD8C3D843B70600013B
:10088000D8C39843558F98C3984393166700E3DD08
:1008900006FED843B7160240719BD8C3D8431367EE
:1008A0002700D8C32147DC42B18BE39EE7FE82805C
:1008B00001A001A001A001A001A001A001A001A030
:1008C00001A001A001A001A001A001A001A001A020
:1008D00001A001A001A001A001A001A001A001A010
:1008E00001A001A001A0970100209381A1F4138130
:1008F00001FD170500001305256697F5FF1F938579
:10090000657017F6FF1F1306E67263FAC5008322AF
:10091000050023A0550011059105E3EAC5FE17F572
:10092000FF1F130525719385819E6377B5002320F2
:1009300005001105E36DB5FE9302000873900230C7
:100940008D427390428097F2FFFF9382A26B93E2F5
:10095000320073905230EFF0BFEC970200009382A8
:1009600082A873901234730020301C4141677917BC
:10097000F98F1CC123200500232205002324050034
:10098000B707024023260500138787006317E50099
:10099000D8431367F700D8C382801387C701631653
:1009A000E500D8431367070FFDB7138707036318E4
:1009B000E500D8438566938606F0558FE9BF138717
:1009C00047046315E500D843BD66C5BF1387870597
:1009D0006316E500D843B7060F00C5B71387C706EF
:1009E0006316E500D843B706F000C1BF13870708B8
:1009F000E314E5FAD843B706000FC1B71841E17711
:100A0000BD0794517D8F9C45D58F9449D58FD4498E
:100A1000D58F944DD58FD44DD58FD451D58F945536
:100A2000D58FD98F1CC1DC455CC19C411CC5DC4104
:100A30005CC582801C4189C593E717001CC1828078
:100A400041677917F98FDDBF4841420541818280B6
:100A50009C45611122C226C013F7070113F3F7006A
:100A600001C7D8413363E30092211377F60F29C7FA
:100A70008323050001471304800293048004854604
:100A8000B395E600B376B6006392D50293122700C1
:100A9000BD46B396560093C6F6FFB3F37600B31285
:100AA0005300B3E37200639787064CC90507A1465C
:100AB000E317D7FC232075001307F00F6378C704F2
:100AC00083234500A1461304800293048004054754
:100AD000B312D700337756006394E20213972600CF
:100AE0000117BD45B395E50093C5F5FFB3F3750058
:100AF0003317E300B363770063928702232A55001C
:100B000085064147E395E6FC2322750012448244A2
:100B100021018280E39C97F80CC949BFE39297FEBC
:100B200023285500F1BF23A2A19E8280EFF24FD768
:100B3000371702405C4391462A84B18B6385D70006
:100B4000A146638DD706B7376E01938707601CC037
:100B5000B7160240DC42918313F7F700B707002075
:100B60009387C701BA978C23DC42184093F5F50FA1
:100B700093F707083355B70081E73A85EFF00FD4B4
:100B800048C008C448C4B7170240DC43AD83FD8B9E
:100B900013D737008A07F18BD98F93F637010D47AA
:100BA0006373D700D1173707002013078700BA9760
:100BB0008C23EFF0AFD008C86FF02FCF5C43B7772E
:100BC000DC02938707C061B799C5371702405C4BB9
:100BD0005D8D48CB8280B7170240D84B1345F5FF97
:100BE000798DC8CB828099C5371702401C4F5D8D27
:100BF00008CF8280B7170240984F1345F5FF798DD3
:100C000088CF82801E2137370140130707C0C207F3
:100C1000C1836306E500370700406316E500BA218B
:100C200093F7F7F8D98FFA2193F7F7CFC207C1836B
:100C3000D98F1EA1DE215EB59E211EB5B7370140BA
:100C4000938707C06314F5009C251EB985475EA9EC
:100C500082801A31FD77FD17F98F1EB1035305020B
:100C60005A215E2DE5769386F6CFFD8E9E211316D2
:100C70000701BA21A207DD8EF977FD17B3F76700E8
:100C800003D38500C2064182336767003207D98FDC
:100C900037370140C207130707C0C182C183631BF6
:100CA000E50071777D17718FD2251A06518F1316C3
:100CB00007014182FA2152A156AD38C11EB182808E
:100CC0001E2189C593E717001EA18280C207C18338
:100CD000F99BC207C183CDBF8357450491C52167E6
:100CE000D98F2312F5048280C607C583DDBF1E217C
:100CF00089C593E707081EA18280C207C18393F7C5
:100D0000F7F7C207C183C5BF5A2DFD779387F77FD9
:100D1000F98FA205CD8FC207C1835EAD8280EFF24D
:100D20002FB81629F577FD17F58FF621DA25211151
:100D3000D58F1EA95625FD779387379FF58FD6212E
:100D40002A842EC0D58F9625D58FB625D58F5EA542
:100D50005E29C207C18393F7F7CF5D8F5AA9480078
:100D6000F133B74701409387078082456312F40649
:100D7000C2475A24139517003E9542070E05418736
:100D80003E958C41635807048605EFF02FB3930519
:100D900040062AC0EFF08FB28247931445009305B6
:100DA00040063E85EFF04FB45E24C207C18763D58D
:100DB00007020E059305400613052503EFF00FB05B
:100DC0001D89C98CC204C18006A461016FF0EFAD1A
:100DD000B24745B78A0555BF12059305400613056E
:100DE0002503EFF0AFAD3D89E9BF91C55E250967E9
:100DF000D98F5EA582805A25F977FD17F98FD5BF67
:100E00005E2901C6DD8D4EA9828093C5F5FFFD8D5B
:100E1000DDBF00000800090009000A000A000B00FD
:100E20000C000C000D000E000F000F001000110050
:100E30001200130015001600170018001A001C00FD
:100E40001D001F00210023002500270029002C0081
:100E50002E003100340037003A003E0041004500CA
:100E600049004E00520057005C00620068006E00AE
:100E700075007B0083008B0093009C00A500AF00F1
:100E8000B900C400D000DC00E900F700060115013C
:100E9000260137014A015D01720188019F01B801F5
:100EA000D201EE010B022A024B026E029302BA0239
:100EB000E40210033F037003A403DC03170455048A
:100EC0009704DD0427057505C80520067D06E006A4
:100ED0004907B8072D08A9082D09B9094D0AEA0ADA
:100EE000900B400CFA0CC00D910E6F0F5A1053115D
:100EF0005B1272139A14D41520178018F519801BF1
:100F0000231DDE1EB420A622B524E4263429A72BF7
:100F1000402E00310000000001000100020002002C
:100F200003000400050006000700080009000B008C
:100F30000D001000130017001B00200026002D00DC
:100F4000360040004C005A006B0080009800B4004E
:040F5000D600FF00C8
:100F540000010000006CDC020204060804080C1006
:100F64000810182010203040204060800102030443
:100F7400050607080102030405060708000000002F
:00000001FF
